{"abi":[{"type":"constructor","inputs":[{"name":"priceFeed","type":"address","internalType":"address"}],"stateMutability":"nonpayable"},{"type":"fallback","stateMutability":"payable"},{"type":"receive","stateMutability":"payable"},{"type":"function","name":"MINIMUM_USD","inputs":[],"outputs":[{"name":"","type":"uint256","internalType":"uint256"}],"stateMutability":"view"},{"type":"function","name":"cheaperWithdraw","inputs":[],"outputs":[],"stateMutability":"nonpayable"},{"type":"function","name":"fund","inputs":[],"outputs":[],"stateMutability":"payable"},{"type":"function","name":"getAddressToAmountFunded","inputs":[{"name":"addr","type":"address","internalType":"address"}],"outputs":[{"name":"","type":"uint256","internalType":"uint256"}],"stateMutability":"view"},{"type":"function","name":"getFunder","inputs":[{"name":"index","type":"uint256","internalType":"uint256"}],"outputs":[{"name":"","type":"address","internalType":"address"}],"stateMutability":"view"},{"type":"function","name":"getOwner","inputs":[],"outputs":[{"name":"","type":"address","internalType":"address"}],"stateMutability":"view"},{"type":"function","name":"getVersion","inputs":[],"outputs":[{"name":"","type":"uint256","internalType":"uint256"}],"stateMutability":"view"},{"type":"function","name":"withdraw","inputs":[],"outputs":[],"stateMutability":"nonpayable"},{"type":"error","name":"FundMe_NotOwner","inputs":[]}],"bytecode":{"object":"0x60c060405234801561000f575f5ffd5b5060405161088a38038061088a83398101604081905261002e91610043565b336080526001600160a01b031660a052610070565b5f60208284031215610053575f5ffd5b81516001600160a01b0381168114610069575f5ffd5b9392505050565b60805160a0516107e46100a65f395f81816101a7015261028601525f818161012d01528181610314015261044a01526107e45ff3fe60806040526004361061007e575f3560e01c8063893d20e81161004d578063893d20e81461011f578063b60d42881461008d578063be2693f014610165578063d7b4750c146101795761008d565b80630343fb25146100955780630d8e6e2c146100dc5780633ccfd60b146100f05780636b69a592146101045761008d565b3661008d5761008b610198565b005b61008b610198565b3480156100a0575f5ffd5b506100c96100af36600461064e565b6001600160a01b03165f9081526020819052604090205490565b6040519081526020015b60405180910390f35b3480156100e7575f5ffd5b506100c9610283565b3480156100fb575f5ffd5b5061008b610309565b34801561010f575f5ffd5b506100c9674563918244f4000081565b34801561012a575f5ffd5b507f00000000000000000000000000000000000000000000000000000000000000005b6040516001600160a01b0390911681526020016100d3565b348015610170575f5ffd5b5061008b61043f565b348015610184575f5ffd5b5061014d610193366004610674565b6104f3565b674563918244f400006101cb347f0000000000000000000000000000000000000000000000000000000000000000610521565b101561021e5760405162461bcd60e51b815260206004820152601b60248201527f596f75206e65656420746f207370656e64206d6f72652045544821000000000060448201526064015b60405180910390fd5b335f908152602081905260408120805434929061023c90849061069f565b90915550506001805480820182555f919091527fb10e2d527612073b26eecdfd717e6a320cf44b4afac2b0732d9fcbe2b7fa0cf60180546001600160a01b03191633179055565b5f7f00000000000000000000000000000000000000000000000000000000000000006001600160a01b03166354fd4d506040518163ffffffff1660e01b8152600401602060405180830381865afa1580156102e0573d5f5f3e3d5ffd5b505050506040513d601f19601f8201168201806040525081019061030491906106b2565b905090565b336001600160a01b037f00000000000000000000000000000000000000000000000000000000000000001614610352576040516310e0797960e01b815260040160405180910390fd5b5f5b60015481101561039b575f60018281548110610372576103726106c9565b5f9182526020808320909101546001600160a01b03168252819052604081205550600101610354565b50604080515f81526020810191829052516103b8916001916105d7565b506040515f90339047908381818185875af1925050503d805f81146103f8576040519150601f19603f3d011682016040523d82523d5f602084013e6103fd565b606091505b505090508061043c5760405162461bcd60e51b815260206004820152600b60248201526a10d85b1b0819985a5b195960aa1b6044820152606401610215565b50565b336001600160a01b037f00000000000000000000000000000000000000000000000000000000000000001614610488576040516310e0797960e01b815260040160405180910390fd5b6001545f5b818110156104d2575f600182815481106104a9576104a96106c9565b5f9182526020808320909101546001600160a01b0316825281905260408120555060010161048d565b50604080515f81526020810191829052516104ef916001916105d7565b5050565b5f60018281548110610507576105076106c9565b5f918252602090912001546001600160a01b031692915050565b5f5f61052c83610557565b90505f670de0b6b3a764000061054286846106dd565b61054c91906106f4565b925050505b92915050565b5f5f826001600160a01b031663feaf968c6040518163ffffffff1660e01b815260040160a060405180830381865afa158015610595573d5f5f3e3d5ffd5b505050506040513d601f19601f820116820180604052508101906105b99190610731565b505050915050806402540be4006105d0919061077f565b9392505050565b828054828255905f5260205f2090810192821561062a579160200282015b8281111561062a57825182546001600160a01b0319166001600160a01b039091161782556020909201916001909101906105f5565b5061063692915061063a565b5090565b5b80821115610636575f815560010161063b565b5f6020828403121561065e575f5ffd5b81356001600160a01b03811681146105d0575f5ffd5b5f60208284031215610684575f5ffd5b5035919050565b634e487b7160e01b5f52601160045260245ffd5b808201808211156105515761055161068b565b5f602082840312156106c2575f5ffd5b5051919050565b634e487b7160e01b5f52603260045260245ffd5b80820281158282048414176105515761055161068b565b5f8261070e57634e487b7160e01b5f52601260045260245ffd5b500490565b805169ffffffffffffffffffff8116811461072c575f5ffd5b919050565b5f5f5f5f5f60a08688031215610745575f5ffd5b61074e86610713565b6020870151604088015160608901519297509095509350915061077360808701610713565b90509295509295909350565b8082025f8212600160ff1b8414161561079a5761079a61068b565b81810583148215176105515761055161068b56fea264697066735822122091f55bae84750003ea547aa6a485ae477ff7a11c3333168f5eea890e9fdfcdd064736f6c634300081c0033","linkReferences":{}},"methodIdentifiers":{"MINIMUM_USD()":"6b69a592","cheaperWithdraw()":"be2693f0","fund()":"b60d4288","getAddressToAmountFunded(address)":"0343fb25","getFunder(uint256)":"d7b4750c","getOwner()":"893d20e8","getVersion()":"0d8e6e2c","withdraw()":"3ccfd60b"},"id":32}